:060000000A128A11852D91
:100AE8007E088A007F08820074250A128A11800015
:100AF800840A04087D0603190034FF0A0319FE0A54
:100B0800782D8313E230FD000630FE000730FF0029
:100B1800A03084000A128A1178250A128A118301EA
:100B28000A128A11492EF1007108831203138800F2
:100B3800071087100715F930F0006400F00BA12D9D
:100B4800A52D64008312031307110800F100710832
:100B5800831203138800071487100715F930F00073
:100B68006400F00BB42DB82D640083120313071131
:100B780008008312031307178717D630F000C42D17
:100B8800C52DF00BC32D64008312031307138713BD
:100B98001930F1000530F000F00BD02DF10BD02DFD
:100BA80008008312031307178717C730F000640083
:100BB800F00BDB2DDF2D640083120313071387135B
:100BC8001930F100EE30F000F00BE82DF10BE82DB4
:100BD8006400080038300A128A1197250A128A110F
:100BE80001300A128A1197250A128A1106300A1250
:100BF8008A1197250A128A110C300A128A11972530
:100C08000A128A110800203445344C3445344334E0
:100C1800543452344F342D345034533459344334CB
:100C2800483453342034003420345434523441345A
:100C380049344E34203452344534413443344834F2
:100C480049344E34473420340034203445344C344D
:100C580045344334543452344F342D34503453349F
:100C68005934433448345334203400342034203445
:100C7800203454345234413449344E3420344C34C2
:100C88004534463454342034003483160313860123
:100C98008312031386018316031388018312031337
:100CA80086013030831603138700831203138701EC
:100CB800071A5F2E602E252F86158619642E682E3A
:100CC8008312031306146B2E8312031306100A12E1
:100CD8008A11D5250A128A11831203138612061166
:100CE8000A128A11EE250A128A1120308400A030D7
:100CF800F2000408F3001130F40072088400831332
:100D08000008F500F20A7308840075088000F30AE9
:100D1800F40B812E80300A128A1197250A128A1143
:100D2800003083120313E2000030E3006308803AC6
:100D3800FE0080307E02031DA32E10306202031CC9
:100D4800A62EA72EA82EC92E831203136208203EB2
:100D58008400831300080A128A11AA250A128A112C
:100D6800013083120313E2070318E30A0030E30794
:100D78006308803AFE0080307E02031DC52E1030C5
:100D88006202031CC82EC92EA82E31308400B1304F
:100D9800F2000408F3001130F40072088400831391
:100DA8000008F500F20A7308840075088000F30A49
:100DB800F40BD12EC0300A128A1197250A128A1113
:100DC800003083120313E4000030E5006508803A20
:100DD800FE0080307E02031DF32E14306402031CD3
:100DE800F62EF72EF82E192F831203136408313EBE
:100DF8008400831300080A128A11AA250A128A118C
:100E0800013083120313E4070318E50A0030E507ED
:100E18006508803AFE0080307E02031D152F1430CD
:100E28006402031C182F192FF82E0630F4000E3018
:100E3800F300B030F200F20B1F2FF30B1F2FF40B4F
:100E48001F2F83120313871A2A2F2B2FFC2F86118B
:100E580006100630F4000E30F300B030F200F20B4A
:100E6800332FF30B332FF40B332F83120313861610
:100E7800861A3F2F432F831203130615462F83121A
:100E8800031306110A128A11EE250A128A1142303A
:100E98008400C230F2000408F3001130F400720834
:100EA800840083130008F500F20A730884007508AB
:100EB8008000F30AF40B532F80300A128A11972509
:100EC8000A128A11003083120313E6000030E7008B
:100ED8006708803AFE0080307E02031D752F1030AF
:100EE8006602031C782F792F7A2F9B2F8312031306
:100EF8006608423E8400831300080A128A11AA2554
:100F08000A128A11013083120313E6070318E70A4D
:100F18000030E7076708803AFE0080307E02031D34
:100F2800972F10306602031C9A2F9B2F7A2F53306D
:100F38008400D330F2000408F3000F30F400720884
:100F4800840083130008F500F20A7308840075080A
:100F58008000F30AF40BA32FC0300A128A119725D8
:100F68000A128A11003083120313E8000030E900E6
:100F78006908803AFE0080307E02031DC52F0E30BE
:100F88006802031CC82FC92FCA2FEB2F8312031323
:100F98006808533E8400831300080A128A11AA25A0
:100FA8000A128A11013083120313E8070318E90AA9
:100FB8000030E9076908803AFE0080307E02031D90
:100FC800E72F0E306802031CEA2FEB2FCA2F0630DA
:100FD800F4000E30F300B030F200F20BF12FF30BF7
:100FE800F12FF40BF12F0A128A11BD250A128A116A
:080FF8005C2E0A128A11002888
:02400E00723FFF
:00000001FF
